{"abi":[{"type":"function","name":"id","inputs":[{"name":"value","type":"uint256","internalType":"uint256"}],"outputs":[{"name":"","type":"uint256","internalType":"uint256"}],"stateMutability":"pure"}],"bytecode":{"object":"0x6080604052348015600e575f5ffd5b50609680601a5f395ff3fe6080604052348015600e575f5ffd5b50600436106026575f3560e01c80637d3c40c814602a575b5f5ffd5b60386035366004604a565b90565b60405190815260200160405180910390f35b5f602082840312156059575f5ffd5b503591905056fea26469706673582212204f38d6416a0f7d87a239c62063a1da0a77241b1195baee080e41719499e9b14e64736f6c634300081c0033","linkReferences":{}},"methodIdentifiers":{"id(uint256)":"7d3c40c8"},"id":0}