{"abi":[{"type":"constructor","inputs":[{"name":"_initialSupply","type":"uint256","internalType":"uint256"}],"stateMutability":"nonpayable"},{"type":"function","name":"DECIMALS","inputs":[],"outputs":[{"name":"","type":"uint8","internalType":"uint8"}],"stateMutability":"view"},{"type":"function","name":"NAME","inputs":[],"outputs":[{"name":"","type":"string","internalType":"string"}],"stateMutability":"view"},{"type":"function","name":"SYMBOL","inputs":[],"outputs":[{"name":"","type":"string","internalType":"string"}],"stateMutability":"view"},{"type":"function","name":"allowance","inputs":[{"name":"owner","type":"address","internalType":"address"},{"name":"spender","type":"address","internalType":"address"}],"outputs":[{"name":"amount","type":"uint256","internalType":"uint256"}],"stateMutability":"view"},{"type":"function","name":"approve","inputs":[{"name":"spender","type":"address","internalType":"address"},{"name":"value","type":"uint256","internalType":"uint256"}],"outputs":[{"name":"","type":"bool","internalType":"bool"}],"stateMutability":"nonpayable"},{"type":"function","name":"balanceOf","inputs":[{"name":"user","type":"address","internalType":"address"}],"outputs":[{"name":"balance","type":"uint256","internalType":"uint256"}],"stateMutability":"view"},{"type":"function","name":"decreaseAllowance","inputs":[{"name":"spender","type":"address","internalType":"address"},{"name":"subtractedValue","type":"uint256","internalType":"uint256"}],"outputs":[{"name":"","type":"bool","internalType":"bool"}],"stateMutability":"nonpayable"},{"type":"function","name":"increaseAllowance","inputs":[{"name":"spender","type":"address","internalType":"address"},{"name":"addedValue","type":"uint256","internalType":"uint256"}],"outputs":[{"name":"","type":"bool","internalType":"bool"}],"stateMutability":"nonpayable"},{"type":"function","name":"totalSupply","inputs":[],"outputs":[{"name":"","type":"uint256","internalType":"uint256"}],"stateMutability":"view"},{"type":"function","name":"transfer","inputs":[{"name":"to","type":"address","internalType":"address"},{"name":"value","type":"uint256","internalType":"uint256"}],"outputs":[{"name":"","type":"bool","internalType":"bool"}],"stateMutability":"nonpayable"},{"type":"function","name":"transferFrom","inputs":[{"name":"from","type":"address","internalType":"address"},{"name":"to","type":"address","internalType":"address"},{"name":"value","type":"uint256","internalType":"uint256"}],"outputs":[{"name":"","type":"bool","internalType":"bool"}],"stateMutability":"nonpayable"},{"type":"event","name":"Approval","inputs":[{"name":"owner","type":"address","indexed":true,"internalType":"address"},{"name":"spender","type":"address","indexed":true,"internalType":"address"},{"name":"value","type":"uint256","indexed":false,"internalType":"uint256"}],"anonymous":false},{"type":"event","name":"TokenDeployed","inputs":[{"name":"owner","type":"address","indexed":false,"internalType":"address"},{"name":"initialSupply","type":"uint256","indexed":false,"internalType":"uint256"}],"anonymous":false},{"type":"event","name":"Transfer","inputs":[{"name":"from","type":"address","indexed":true,"internalType":"address"},{"name":"to","type":"address","indexed":true,"internalType":"address"},{"name":"value","type":"uint256","indexed":false,"internalType":"uint256"}],"anonymous":false},{"type":"error","name":"AllowanceExceeded","inputs":[{"name":"owner","type":"address","internalType":"address"},{"name":"spender","type":"address","internalType":"address"},{"name":"allowance","type":"uint256","internalType":"uint256"},{"name":"value","type":"uint256","internalType":"uint256"}]},{"type":"error","name":"DecreasedAllowanceBelowZero","inputs":[{"name":"owner","type":"address","internalType":"address"},{"name":"spender","type":"address","internalType":"address"},{"name":"currentAllowance","type":"uint256","internalType":"uint256"},{"name":"subtractedValue","type":"uint256","internalType":"uint256"}]},{"type":"error","name":"InsufficientBalance","inputs":[{"name":"account","type":"address","internalType":"address"},{"name":"balance","type":"uint256","internalType":"uint256"},{"name":"value","type":"uint256","internalType":"uint256"}]},{"type":"error","name":"IsZeroAddress","inputs":[{"name":"account","type":"address","internalType":"address"}]}],"bytecode":{"object":"0x608060405234801561000f575f5ffd5b506040516109b23803806109b283398101604081905261002e91610098565b61003a6012600a6101a8565b61004490826101ba565b5f818155338082526001602090815260409283902084905582519182528101929092527f26787b53689e0fdbd865bd36ace5d89d3412878235ad520303bcebb84974b22c910160405180910390a1506101d1565b5f602082840312156100a8575f5ffd5b5051919050565b634e487b7160e01b5f52601160045260245ffd5b6001815b60018411156100fe578085048111156100e2576100e26100af565b60018416156100f057908102905b60019390931c9280026100c7565b935093915050565b5f82610114575060016101a2565b8161012057505f6101a2565b816001811461013657600281146101405761015c565b60019150506101a2565b60ff841115610151576101516100af565b50506001821b6101a2565b5060208310610133831016604e8410600b841016171561017f575081810a6101a2565b61018b5f1984846100c3565b805f190482111561019e5761019e6100af565b0290505b92915050565b5f6101b38383610106565b9392505050565b80820281158282048414176101a2576101a26100af565b6107d4806101de5f395ff3fe608060405234801561000f575f5ffd5b50600436106100a6575f3560e01c806370a082311161006e57806370a0823114610128578063a3f4df7e14610147578063a457c2d71461017c578063a9059cbb1461018f578063dd62ed3e146101a2578063f76f8d78146101cc575f5ffd5b8063095ea7b3146100aa57806318160ddd146100d257806323b872dd146100e85780632e0f2625146100fb5780633950935114610115575b5f5ffd5b6100bd6100b836600461067c565b6101ee565b60405190151581526020015b60405180910390f35b6100da5f5481565b6040519081526020016100c9565b6100bd6100f63660046106a4565b61028b565b610103601281565b60405160ff90911681526020016100c9565b6100bd61012336600461067c565b610354565b6100da6101363660046106de565b60016020525f908152604090205481565b61016f604051806040016040528060098152602001682a32b9ba2a37b5b2b760b91b81525081565b6040516100c991906106fe565b6100bd61018a36600461067c565b610414565b6100bd61019d36600461067c565b61050d565b6100da6101b0366004610733565b600260209081525f928352604080842090915290825290205481565b61016f6040518060400160405280600381526020016254544b60e81b81525081565b5f6001600160a01b0383166102265760405163808de03360e01b81526001600160a01b03841660048201526024015b60405180910390fd5b335f8181526002602090815260408083206001600160a01b03881680855290835292819020869055518581529192917f8c5be1e5ebec7d5bd14f71427d1e84f3dd0314c0f7b2291e5b200ac8c7c3b92591015b60405180910390a35060015b92915050565b6001600160a01b0383165f908152600260209081526040808320338452909152812054821115610307576001600160a01b0384165f8181526002602090815260408083203380855292529182902054915163140bab0560e11b81526004810193909352602483015260448201526064810183905260840161021d565b6001600160a01b0384165f90815260026020908152604080832033845290915281208054849290610339908490610778565b9091555061034a9050848484610522565b5060019392505050565b5f6001600160a01b0383166103875760405163808de03360e01b81526001600160a01b038416600482015260240161021d565b335f9081526002602090815260408083206001600160a01b0387168452909152812080548492906103b990849061078b565b9091555050335f8181526002602090815260408083206001600160a01b038816808552908352928190205490519081529192917f8c5be1e5ebec7d5bd14f71427d1e84f3dd0314c0f7b2291e5b200ac8c7c3b9259101610279565b335f9081526002602090815260408083206001600160a01b0386168085529252822054906104605760405163808de03360e01b81526001600160a01b038516600482015260240161021d565b828110156104a057604051630ca6c0ad60e01b81523360048201526001600160a01b0385166024820152604481018290526064810184905260840161021d565b6104aa8382610778565b335f8181526002602090815260408083206001600160a01b038a16808552908352928190208590555193845290927f8c5be1e5ebec7d5bd14f71427d1e84f3dd0314c0f7b2291e5b200ac8c7c3b925910160405180910390a35060019392505050565b5f610519338484610522565b50600192915050565b6001600160a01b0382166105545760405163808de03360e01b81526001600160a01b038316600482015260240161021d565b6001600160a01b0383165f908152600160205260409020548111156105b5576001600160a01b0383165f818152600160205260409081902054905163db42144d60e01b8152600481019290925260248201526044810182905260640161021d565b6001600160a01b0383165f90815260016020526040812080548392906105dc908490610778565b90915550506001600160a01b0382165f908152600160205260408120805483929061060890849061078b565b92505081905550816001600160a01b0316836001600160a01b03167fddf252ad1be2c89b69c2b068fc378daa952ba7f163c4a11628f55a4df523b3ef8360405161065491815260200190565b60405180910390a3505050565b80356001600160a01b0381168114610677575f5ffd5b919050565b5f5f6040838503121561068d575f5ffd5b61069683610661565b946020939093013593505050565b5f5f5f606084860312156106b6575f5ffd5b6106bf84610661565b92506106cd60208501610661565b929592945050506040919091013590565b5f602082840312156106ee575f5ffd5b6106f782610661565b9392505050565b602081525f82518060208401528060208501604085015e5f604082850101526040601f19601f83011684010191505092915050565b5f5f60408385031215610744575f5ffd5b61074d83610661565b915061075b60208401610661565b90509250929050565b634e487b7160e01b5f52601160045260245ffd5b8181038181111561028557610285610764565b808201808211156102855761028561076456fea2646970667358221220971ef6f1ef216f0b8ca731ead25b6e1aa88fd96a2779c373a918a89a0107d1b964736f6c634300081c0033","linkReferences":{}},"methodIdentifiers":{"DECIMALS()":"2e0f2625","NAME()":"a3f4df7e","SYMBOL()":"f76f8d78","allowance(address,address)":"dd62ed3e","approve(address,uint256)":"095ea7b3","balanceOf(address)":"70a08231","decreaseAllowance(address,uint256)":"a457c2d7","increaseAllowance(address,uint256)":"39509351","totalSupply()":"18160ddd","transfer(address,uint256)":"a9059cbb","transferFrom(address,address,uint256)":"23b872dd"},"id":25}