{"abi":[{"type":"constructor","inputs":[{"name":"_testToken","type":"address","internalType":"contract TestToken"}],"stateMutability":"payable"},{"type":"function","name":"changeAPY","inputs":[{"name":"_value","type":"uint256","internalType":"uint256"}],"outputs":[],"stateMutability":"nonpayable"},{"type":"function","name":"claimTst","inputs":[],"outputs":[],"stateMutability":"nonpayable"},{"type":"function","name":"customAPY","inputs":[],"outputs":[{"name":"","type":"uint256","internalType":"uint256"}],"stateMutability":"view"},{"type":"function","name":"customHasStaked","inputs":[{"name":"","type":"address","internalType":"address"}],"outputs":[{"name":"","type":"bool","internalType":"bool"}],"stateMutability":"view"},{"type":"function","name":"customIsStakingAtm","inputs":[{"name":"","type":"address","internalType":"address"}],"outputs":[{"name":"","type":"bool","internalType":"bool"}],"stateMutability":"view"},{"type":"function","name":"customRewards","inputs":[],"outputs":[],"stateMutability":"nonpayable"},{"type":"function","name":"customStakers","inputs":[{"name":"","type":"uint256","internalType":"uint256"}],"outputs":[{"name":"","type":"address","internalType":"address"}],"stateMutability":"view"},{"type":"function","name":"customStaking","inputs":[{"name":"_amount","type":"uint256","internalType":"uint256"}],"outputs":[],"stateMutability":"nonpayable"},{"type":"function","name":"customStakingBalance","inputs":[{"name":"","type":"address","internalType":"address"}],"outputs":[{"name":"","type":"uint256","internalType":"uint256"}],"stateMutability":"view"},{"type":"function","name":"customTotalStaked","inputs":[],"outputs":[{"name":"","type":"uint256","internalType":"uint256"}],"stateMutability":"view"},{"type":"function","name":"customUnstake","inputs":[],"outputs":[],"stateMutability":"nonpayable"},{"type":"function","name":"defaultAPY","inputs":[],"outputs":[{"name":"","type":"uint256","internalType":"uint256"}],"stateMutability":"view"},{"type":"function","name":"hasStaked","inputs":[{"name":"","type":"address","internalType":"address"}],"outputs":[{"name":"","type":"bool","internalType":"bool"}],"stateMutability":"view"},{"type":"function","name":"isStakingAtm","inputs":[{"name":"","type":"address","internalType":"address"}],"outputs":[{"name":"","type":"bool","internalType":"bool"}],"stateMutability":"view"},{"type":"function","name":"name","inputs":[],"outputs":[{"name":"","type":"string","internalType":"string"}],"stateMutability":"view"},{"type":"function","name":"owner","inputs":[],"outputs":[{"name":"","type":"address","internalType":"address"}],"stateMutability":"view"},{"type":"function","name":"redistributeRewards","inputs":[],"outputs":[],"stateMutability":"nonpayable"},{"type":"function","name":"stakeTokens","inputs":[{"name":"_amount","type":"uint256","internalType":"uint256"}],"outputs":[],"stateMutability":"nonpayable"},{"type":"function","name":"stakers","inputs":[{"name":"","type":"uint256","internalType":"uint256"}],"outputs":[{"name":"","type":"address","internalType":"address"}],"stateMutability":"view"},{"type":"function","name":"stakingBalance","inputs":[{"name":"","type":"address","internalType":"address"}],"outputs":[{"name":"","type":"uint256","internalType":"uint256"}],"stateMutability":"view"},{"type":"function","name":"testToken","inputs":[],"outputs":[{"name":"","type":"address","internalType":"contract TestToken"}],"stateMutability":"view"},{"type":"function","name":"totalStaked","inputs":[],"outputs":[{"name":"","type":"uint256","internalType":"uint256"}],"stateMutability":"view"},{"type":"function","name":"unstakeTokens","inputs":[],"outputs":[],"stateMutability":"nonpayable"}],"bytecode":{"object":"0x60c0604052601a60809081527f5969656c64204661726d696e67202f20546f6b656e206441707000000000000060a0525f9061003b908261012a565b50606460035560896004556040516110a53803806110a5833981016040819052610064916101e4565b600180546001600160a01b039092166001600160a01b03199283161790556002805490911633179055610211565b634e487b7160e01b5f52604160045260245ffd5b600181811c908216806100ba57607f821691505b6020821081036100d857634e487b7160e01b5f52602260045260245ffd5b50919050565b601f82111561012557805f5260205f20601f840160051c810160208510156101035750805b601f840160051c820191505b81811015610122575f815560010161010f565b50505b505050565b81516001600160401b0381111561014357610143610092565b6101578161015184546100a6565b846100de565b6020601f821160018114610189575f83156101725750848201515b5f19600385901b1c1916600184901b178455610122565b5f84815260208120601f198516915b828110156101b85787850151825560209485019460019092019101610198565b50848210156101d557868401515f19600387901b60f8161c191681555b50505050600190811b01905550565b5f602082840312156101f4575f5ffd5b81516001600160a01b038116811461020a575f5ffd5b9392505050565b610e878061021e5f395ff3fe608060405234801561000f575f5ffd5b5060043610610148575f3560e01c80637cc302e5116100bf578063c93c8f3411610079578063c93c8f34146102b7578063cc8da8b8146102d9578063cde5f473146102e1578063dfb0e706146102f4578063fb5cd51514610313578063fd5e6dd114610326575f5ffd5b80637cc302e514610260578063817b1cd2146102685780638da5cb5b146102715780639bd6293214610284578063a5ce413b146102a6578063b4e892af146102ae575f5ffd5b806363fa14661161011057806363fa1466146101dc57806366f1c920146101e55780636895179d146101ed5780636d6010c1146102185780637547c7a31461023a57806376159b681461024d575f5ffd5b806306fdde031461014c5780630c500a4e1461016a57806329cc24071461018157806345bc78ab1461018b5780635b5c58c3146101aa575b5f5ffd5b610154610339565b6040516101619190610cb1565b60405180910390f35b61017360045481565b604051908152602001610161565b6101896103c4565b005b610173610199366004610ce6565b60076020525f908152604090205481565b6101cc6101b8366004610ce6565b600c6020525f908152604090205460ff1681565b6040519015158152602001610161565b61017360065481565b61018961044c565b600154610200906001600160a01b031681565b6040516001600160a01b039091168152602001610161565b6101cc610226366004610ce6565b600a6020525f908152604090205460ff1681565b610189610248366004610d13565b61056d565b61018961025b366004610d13565b6106ed565b6101896107d9565b61017360055481565b600254610200906001600160a01b031681565b6101cc610292366004610ce6565b600b6020525f908152604090205460ff1681565b6101896108df565b61017360035481565b6101cc6102c5366004610ce6565b60096020525f908152604090205460ff1681565b6101896109e5565b6102006102ef366004610d13565b610afa565b610173610302366004610ce6565b60086020525f908152604090205481565b610189610321366004610d13565b610b22565b610200610334366004610d13565b610ca2565b5f805461034590610d2a565b80601f016020809104026020016040519081016040528092919081815260200182805461037190610d2a565b80156103bc5780601f10610393576101008083540402835291602001916103bc565b820191905f5260205f20905b81548152906001019060200180831161039f57829003601f168201915b505050505081565b60015460405163a9059cbb60e01b81523360048201819052683635c9adc5dea00000602483018190529092909182916001600160a01b03169063a9059cbb906044016020604051808303815f875af1158015610422573d5f5f3e3d5ffd5b505050506040513d601f19601f820116820180604052508101906104469190610d62565b50505050565b6002546001600160a01b0316331461047f5760405162461bcd60e51b815260040161047690610d81565b60405180910390fd5b5f5b600e5481101561056a575f600e828154811061049f5761049f610dc7565b5f9182526020808320909101546004546001600160a01b03909116808452600890925260408320549193506104d391610def565b90506104e2620186a082610e0c565b905080156105605760015460405163a9059cbb60e01b81526001600160a01b038481166004830152602482018490529091169063a9059cbb906044016020604051808303815f875af115801561053a573d5f5f3e3d5ffd5b505050506040513d601f19601f8201168201806040525081019061055e9190610d62565b505b5050600101610481565b50565b5f81116105b15760405162461bcd60e51b81526020600482015260126024820152710616d6f756e742063616e6e6f7420626520360741b6044820152606401610476565b6001546040516323b872dd60e01b8152336004820152306024820152604481018390526001600160a01b03909116906323b872dd906064016020604051808303815f875af1158015610605573d5f5f3e3d5ffd5b505050506040513d601f19601f820116820180604052508101906106299190610d62565b50806005546106389190610e2b565b600555335f90815260076020526040902054610655908290610e2b565b335f9081526007602090815260408083209390935560099052205460ff166106b957600d80546001810182555f919091527fd7b6990105719101dabeb77144f2a3385c8033acd3af97e9423a695e81ad1eb50180546001600160a01b031916331790555b50335f9081526009602090815260408083208054600160ff199182168117909255600b909352922080549091169091179055565b6002546001600160a01b031633146107535760405162461bcd60e51b8152602060048201526024808201527f4f6e6c7920636f6e74726163742063726561746f722063616e206368616e67656044820152632041505960e01b6064820152608401610476565b5f81116107d45760405162461bcd60e51b815260206004820152604360248201527f4150592076616c75652068617320746f206265206d6f7265207468616e20302c60448201527f207472792031303020666f722028302e31303025206461696c792920696e737460648201526219585960ea1b608482015260a401610476565b600455565b335f90815260086020526040902054806108355760405162461bcd60e51b815260206004820152601c60248201527f616d6f756e742068617320746f206265206d6f7265207468616e2030000000006044820152606401610476565b60015460405163a9059cbb60e01b8152336004820152602481018390526001600160a01b039091169063a9059cbb906044016020604051808303815f875af1158015610883573d5f5f3e3d5ffd5b505050506040513d601f19601f820116820180604052508101906108a79190610d62565b50806006546108b69190610e3e565b60065550335f908152600860209081526040808320839055600c9091529020805460ff19169055565b335f908152600760205260409020548061093b5760405162461bcd60e51b815260206004820152601c60248201527f616d6f756e742068617320746f206265206d6f7265207468616e2030000000006044820152606401610476565b60015460405163a9059cbb60e01b8152336004820152602481018390526001600160a01b039091169063a9059cbb906044016020604051808303815f875af1158015610989573d5f5f3e3d5ffd5b505050506040513d601f19601f820116820180604052508101906109ad9190610d62565b50806005546109bc9190610e3e565b60055550335f908152600760209081526040808320839055600b9091529020805460ff19169055565b6002546001600160a01b03163314610a0f5760405162461bcd60e51b815260040161047690610d81565b5f5b600d5481101561056a575f600d8281548110610a2f57610a2f610dc7565b5f9182526020808320909101546003546001600160a01b0390911680845260079092526040832054919350610a6391610def565b9050610a72620186a082610e0c565b90508015610af05760015460405163a9059cbb60e01b81526001600160a01b038481166004830152602482018490529091169063a9059cbb906044016020604051808303815f875af1158015610aca573d5f5f3e3d5ffd5b505050506040513d601f19601f82011682018060405250810190610aee9190610d62565b505b5050600101610a11565b600e8181548110610b09575f80fd5b5f918252602090912001546001600160a01b0316905081565b5f8111610b665760405162461bcd60e51b81526020600482015260126024820152710616d6f756e742063616e6e6f7420626520360741b6044820152606401610476565b6001546040516323b872dd60e01b8152336004820152306024820152604481018390526001600160a01b03909116906323b872dd906064016020604051808303815f875af1158015610bba573d5f5f3e3d5ffd5b505050506040513d601f19601f82011682018060405250810190610bde9190610d62565b5080600654610bed9190610e2b565b600655335f90815260086020526040902054610c0a908290610e2b565b335f90815260086020908152604080832093909355600a9052205460ff16610c6e57600e80546001810182555f919091527fbb7b4a454dc3493923482f07822329ed19e8244eff582cc204f8554c3620c3fd0180546001600160a01b031916331790555b50335f908152600a602090815260408083208054600160ff199182168117909255600c909352922080549091169091179055565b600d8181548110610b09575f80fd5b602081525f82518060208401528060208501604085015e5f604082850101526040601f19601f83011684010191505092915050565b5f60208284031215610cf6575f5ffd5b81356001600160a01b0381168114610d0c575f5ffd5b9392505050565b5f60208284031215610d23575f5ffd5b5035919050565b600181811c90821680610d3e57607f821691505b602082108103610d5c57634e487b7160e01b5f52602260045260245ffd5b50919050565b5f60208284031215610d72575f5ffd5b81518015158114610d0c575f5ffd5b60208082526026908201527f4f6e6c7920636f6e74726163742063726561746f722063616e2072656469737460408201526572696275746560d01b606082015260800190565b634e487b7160e01b5f52603260045260245ffd5b634e487b7160e01b5f52601160045260245ffd5b8082028115828204841417610e0657610e06610ddb565b92915050565b5f82610e2657634e487b7160e01b5f52601260045260245ffd5b500490565b80820180821115610e0657610e06610ddb565b81810381811115610e0657610e06610ddb56fea2646970667358221220f452dfc1f0c29cb6885a1353fe7a0f0e68ad97a225967e0c9e5a125f18effe2864736f6c634300081c0033","linkReferences":{}},"methodIdentifiers":{"changeAPY(uint256)":"76159b68","claimTst()":"29cc2407","customAPY()":"0c500a4e","customHasStaked(address)":"6d6010c1","customIsStakingAtm(address)":"5b5c58c3","customRewards()":"66f1c920","customStakers(uint256)":"cde5f473","customStaking(uint256)":"fb5cd515","customStakingBalance(address)":"dfb0e706","customTotalStaked()":"63fa1466","customUnstake()":"7cc302e5","defaultAPY()":"b4e892af","hasStaked(address)":"c93c8f34","isStakingAtm(address)":"9bd62932","name()":"06fdde03","owner()":"8da5cb5b","redistributeRewards()":"cc8da8b8","stakeTokens(uint256)":"7547c7a3","stakers(uint256)":"fd5e6dd1","stakingBalance(address)":"45bc78ab","testToken()":"6895179d","totalStaked()":"817b1cd2","unstakeTokens()":"a5ce413b"},"id":26}